{
  "_format": "hh-sol-artifact-1",
  "contractName": "DocumentRegistry",
  "sourceName": "contracts/DocumentRegistry.sol",
  "abi": [
    {
      "inputs": [],
      "stateMutability": "nonpayable",
      "type": "constructor"
    },
    {
      "anonymous": false,
      "inputs": [
        {
          "indexed": true,
          "internalType": "uint256",
          "name": "documentId",
          "type": "uint256"
        },
        {
          "indexed": true,
          "internalType": "address",
          "name": "accessor",
          "type": "address"
        },
        {
          "indexed": false,
          "internalType": "string",
          "name": "accessedColumns",
          "type": "string"
        },
        {
          "indexed": false,
          "internalType": "string",
          "name": "deniedColumns",
          "type": "string"
        },
        {
          "indexed": false,
          "internalType": "uint256",
          "name": "timestamp",
          "type": "uint256"
        }
      ],
      "name": "AccessLogged",
      "type": "event"
    },
    {
      "anonymous": false,
      "inputs": [
        {
          "indexed": true,
          "internalType": "uint256",
          "name": "documentId",
          "type": "uint256"
        },
        {
          "indexed": false,
          "internalType": "bytes32",
          "name": "sha256Hash",
          "type": "bytes32"
        },
        {
          "indexed": true,
          "internalType": "address",
          "name": "creator",
          "type": "address"
        },
        {
          "indexed": false,
          "internalType": "uint256",
          "name": "timestamp",
          "type": "uint256"
        }
      ],
      "name": "DocumentStored",
      "type": "event"
    },
    {
      "anonymous": false,
      "inputs": [
        {
          "indexed": true,
          "internalType": "uint256",
          "name": "documentId",
          "type": "uint256"
        },
        {
          "indexed": false,
          "internalType": "bool",
          "name": "integrityValid",
          "type": "bool"
        },
        {
          "indexed": true,
          "internalType": "address",
          "name": "verifier",
          "type": "address"
        }
      ],
      "name": "DocumentVerified",
      "type": "event"
    },
    {
      "anonymous": false,
      "inputs": [
        {
          "indexed": true,
          "internalType": "uint256",
          "name": "documentId",
          "type": "uint256"
        },
        {
          "indexed": false,
          "internalType": "string",
          "name": "newColumnAccessMapping",
          "type": "string"
        },
        {
          "indexed": true,
          "internalType": "address",
          "name": "updater",
          "type": "address"
        }
      ],
      "name": "RoleMappingUpdated",
      "type": "event"
    },
    {
      "inputs": [],
      "name": "accessLogCount",
      "outputs": [
        {
          "internalType": "uint256",
          "name": "",
          "type": "uint256"
        }
      ],
      "stateMutability": "view",
      "type": "function"
    },
    {
      "inputs": [
        {
          "internalType": "uint256",
          "name": "",
          "type": "uint256"
        }
      ],
      "name": "accessLogs",
      "outputs": [
        {
          "internalType": "address",
          "name": "accessor",
          "type": "address"
        },
        {
          "internalType": "uint256",
          "name": "documentId",
          "type": "uint256"
        },
        {
          "internalType": "string",
          "name": "accessedColumns",
          "type": "string"
        },
        {
          "internalType": "string",
          "name": "deniedColumns",
          "type": "string"
        },
        {
          "internalType": "uint256",
          "name": "timestamp",
          "type": "uint256"
        }
      ],
      "stateMutability": "view",
      "type": "function"
    },
    {
      "inputs": [],
      "name": "documentCount",
      "outputs": [
        {
          "internalType": "uint256",
          "name": "",
          "type": "uint256"
        }
      ],
      "stateMutability": "view",
      "type": "function"
    },
    {
      "inputs": [
        {
          "internalType": "uint256",
          "name": "",
          "type": "uint256"
        }
      ],
      "name": "documents",
      "outputs": [
        {
          "internalType": "uint256",
          "name": "documentId",
          "type": "uint256"
        },
        {
          "internalType": "bytes32",
          "name": "sha256Hash",
          "type": "bytes32"
        },
        {
          "internalType": "address",
          "name": "creator",
          "type": "address"
        },
        {
          "internalType": "uint256",
          "name": "timestamp",
          "type": "uint256"
        },
        {
          "internalType": "string",
          "name": "columnAccessMapping",
          "type": "string"
        },
        {
          "internalType": "bool",
          "name": "exists",
          "type": "bool"
        }
      ],
      "stateMutability": "view",
      "type": "function"
    },
    {
      "inputs": [
        {
          "internalType": "uint256",
          "name": "_index",
          "type": "uint256"
        }
      ],
      "name": "getAccessLog",
      "outputs": [
        {
          "internalType": "address",
          "name": "accessor",
          "type": "address"
        },
        {
          "internalType": "uint256",
          "name": "documentId",
          "type": "uint256"
        },
        {
          "internalType": "string",
          "name": "accessedColumns",
          "type": "string"
        },
        {
          "internalType": "string",
          "name": "deniedColumns",
          "type": "string"
        },
        {
          "internalType": "uint256",
          "name": "timestamp",
          "type": "uint256"
        }
      ],
      "stateMutability": "view",
      "type": "function"
    },
    {
      "inputs": [
        {
          "internalType": "uint256",
          "name": "_documentId",
          "type": "uint256"
        }
      ],
      "name": "getDocument",
      "outputs": [
        {
          "internalType": "bytes32",
          "name": "sha256Hash",
          "type": "bytes32"
        },
        {
          "internalType": "address",
          "name": "creator",
          "type": "address"
        },
        {
          "internalType": "uint256",
          "name": "timestamp",
          "type": "uint256"
        },
        {
          "internalType": "string",
          "name": "columnAccessMapping",
          "type": "string"
        }
      ],
      "stateMutability": "view",
      "type": "function"
    },
    {
      "inputs": [
        {
          "internalType": "uint256",
          "name": "_documentId",
          "type": "uint256"
        },
        {
          "internalType": "string",
          "name": "_accessedColumns",
          "type": "string"
        },
        {
          "internalType": "string",
          "name": "_deniedColumns",
          "type": "string"
        }
      ],
      "name": "logAccess",
      "outputs": [],
      "stateMutability": "nonpayable",
      "type": "function"
    },
    {
      "inputs": [],
      "name": "owner",
      "outputs": [
        {
          "internalType": "address",
          "name": "",
          "type": "address"
        }
      ],
      "stateMutability": "view",
      "type": "function"
    },
    {
      "inputs": [
        {
          "internalType": "uint256",
          "name": "_documentId",
          "type": "uint256"
        },
        {
          "internalType": "bytes32",
          "name": "_sha256Hash",
          "type": "bytes32"
        },
        {
          "internalType": "string",
          "name": "_columnAccessMapping",
          "type": "string"
        }
      ],
      "name": "storeDocument",
      "outputs": [],
      "stateMutability": "nonpayable",
      "type": "function"
    },
    {
      "inputs": [
        {
          "internalType": "uint256",
          "name": "_documentId",
          "type": "uint256"
        },
        {
          "internalType": "string",
          "name": "_newMapping",
          "type": "string"
        }
      ],
      "name": "updateRoleMapping",
      "outputs": [],
      "stateMutability": "nonpayable",
      "type": "function"
    },
    {
      "inputs": [
        {
          "internalType": "uint256",
          "name": "_documentId",
          "type": "uint256"
        },
        {
          "internalType": "bytes32",
          "name": "_sha256Hash",
          "type": "bytes32"
        }
      ],
      "name": "verifyDocument",
      "outputs": [
        {
          "internalType": "bool",
          "name": "valid",
          "type": "bool"
        }
      ],
      "stateMutability": "nonpayable",
      "type": "function"
    }
  ],
  "bytecode": "0x608060405234801561001057600080fd5b50600080546001600160a01b0319163317905561106e806100326000396000f3fe608060405234801561001057600080fd5b50600436106100a95760003560e01c80638da5cb5b116100715780638da5cb5b14610145578063a09d926d14610170578063a5b16b2e14610183578063c2ed2b051461019a578063d1652986146101bf578063f2454b59146101c857600080fd5b8063052548c8146100ae5780633cbd8d1b146100d65780633f9b250a146100eb57806359741ba01461010e578063685d5b8b14610132575b600080fd5b6100c16100bc366004610b42565b6101db565b60405190151581526020015b60405180910390f35b6100e96100e4366004610c07565b61026d565b005b6100fe6100f9366004610c74565b6103fb565b6040516100cd9493929190610cd3565b61012161011c366004610c74565b610502565b6040516100cd959493929190610d0a565b610121610140366004610c74565b61065f565b600054610158906001600160a01b031681565b6040516001600160a01b0390911681526020016100cd565b6100e961017e366004610d56565b610829565b61018c60035481565b6040519081526020016100cd565b6101ad6101a8366004610c74565b610988565b6040516100cd96959493929190610d9c565b61018c60045481565b6100e96101d6366004610de4565b610a55565b600082815260016020526040812060050154839060ff166102175760405162461bcd60e51b815260040161020e90610e2b565b60405180910390fd5b6000848152600160208181526040928390209091015491519185148083529350339186917fd25e393a86fa11942083b09f4ae6ff954c342f9af43f93f633e7b2c9e7d4e5ca910160405180910390a35092915050565b600083815260016020526040902060050154839060ff166102a05760405162461bcd60e51b815260040161020e90610e2b565b6040805160a08101825233815260208101868152918101858152606082018590524260808301526002805460018101825560009190915282517f405787fa12a823e0f2b7631cc41b3ba8828b3321ca811111fa75cd3aa3bb5ace600590920291820180546001600160a01b0319166001600160a01b0390921691909117815593517f405787fa12a823e0f2b7631cc41b3ba8828b3321ca811111fa75cd3aa3bb5acf82015590519192917f405787fa12a823e0f2b7631cc41b3ba8828b3321ca811111fa75cd3aa3bb5ad0909101906103799082610eeb565b506060820151600382019061038e9082610eeb565b506080919091015160049182015580549060006103aa83610fab565b9190505550336001600160a01b0316847fb914f699cd6b0fdf9b34b34e7318f3b5a999f21b10277e6043fb50e36f1891518585426040516103ed93929190610fd2565b60405180910390a350505050565b60008181526001602052604081206005015481908190606090859060ff166104355760405162461bcd60e51b815260040161020e90610e2b565b600086815260016020819052604090912090810154600282015460038301546004840180546001600160a01b0390931692819061047190610e62565b80601f016020809104026020016040519081016040528092919081815260200182805461049d90610e62565b80156104ea5780601f106104bf576101008083540402835291602001916104ea565b820191906000526020600020905b8154815290600101906020018083116104cd57829003601f168201915b50505050509050955095509550955050509193509193565b6002818154811061051257600080fd5b60009182526020909120600590910201805460018201546002830180546001600160a01b03909316945090929161054890610e62565b80601f016020809104026020016040519081016040528092919081815260200182805461057490610e62565b80156105c15780601f10610596576101008083540402835291602001916105c1565b820191906000526020600020905b8154815290600101906020018083116105a457829003601f168201915b5050505050908060030180546105d690610e62565b80601f016020809104026020016040519081016040528092919081815260200182805461060290610e62565b801561064f5780601f106106245761010080835404028352916020019161064f565b820191906000526020600020905b81548152906001019060200180831161063257829003601f168201915b5050505050908060040154905085565b600080606080600060045486106106ae5760405162461bcd60e51b8152602060048201526013602482015272496e646578206f7574206f6620626f756e647360681b604482015260640161020e565b6000600287815481106106c3576106c3611008565b906000526020600020906005020190508060000160009054906101000a90046001600160a01b031681600101548260020183600301846004015482805461070990610e62565b80601f016020809104026020016040519081016040528092919081815260200182805461073590610e62565b80156107825780601f1061075757610100808354040283529160200191610782565b820191906000526020600020905b81548152906001019060200180831161076557829003601f168201915b5050505050925081805461079590610e62565b80601f01602080910402602001604051908101604052809291908181526020018280546107c190610e62565b801561080e5780601f106107e35761010080835404028352916020019161080e565b820191906000526020600020905b8154815290600101906020018083116107f157829003601f168201915b50505050509150955095509550955095505091939590929450565b60008381526001602052604090206005015460ff161561088b5760405162461bcd60e51b815260206004820152601b60248201527f446f63756d656e7420616c726561647920726567697374657265640000000000604482015260640161020e565b6040805160c081018252848152602080820185815233838501908152426060850190815260808501878152600160a0870181905260008b8152958190529690942085518155925195830195909555516002820180546001600160a01b0319166001600160a01b03909216919091179055925160038401555190919060048201906109159082610eeb565b5060a091909101516005909101805460ff19169115159190911790556003805490600061094183610fab565b909155505060408051838152426020820152339185917f7fff3a9ea0f604eef21e6a3b799e77decfbb6b78ee19160533ebb790bf06efc891015b60405180910390a3505050565b60016020819052600091825260409091208054918101546002820154600383015460048401805493946001600160a01b03909316939192916109c990610e62565b80601f01602080910402602001604051908101604052809291908181526020018280546109f590610e62565b8015610a425780601f10610a1757610100808354040283529160200191610a42565b820191906000526020600020905b815481529060010190602001808311610a2557829003601f168201915b5050506005909301549192505060ff1686565b6000546001600160a01b03163314610ab95760405162461bcd60e51b815260206004820152602160248201527f4f6e6c79206f776e65722063616e2063616c6c20746869732066756e6374696f6044820152603760f91b606482015260840161020e565b600082815260016020526040902060050154829060ff16610aec5760405162461bcd60e51b815260040161020e90610e2b565b6000838152600160205260409020600401610b078382610eeb565b50336001600160a01b0316837feafa15a3c0a8bdd0add1dc2de3d76af7adc9be7ff49af6d19c3cff3d2a4ac45d8460405161097b919061101e565b60008060408385031215610b5557600080fd5b50508035926020909101359150565b634e487b7160e01b600052604160045260246000fd5b600082601f830112610b8b57600080fd5b813567ffffffffffffffff80821115610ba657610ba6610b64565b604051601f8301601f19908116603f01168101908282118183101715610bce57610bce610b64565b81604052838152866020858801011115610be757600080fd5b836020870160208301376000602085830101528094505050505092915050565b600080600060608486031215610c1c57600080fd5b83359250602084013567ffffffffffffffff80821115610c3b57600080fd5b610c4787838801610b7a565b93506040860135915080821115610c5d57600080fd5b50610c6a86828701610b7a565b9150509250925092565b600060208284031215610c8657600080fd5b5035919050565b6000815180845260005b81811015610cb357602081850181015186830182015201610c97565b506000602082860101526020601f19601f83011685010191505092915050565b84815260018060a01b0384166020820152826040820152608060608201526000610d006080830184610c8d565b9695505050505050565b60018060a01b038616815284602082015260a060408201526000610d3160a0830186610c8d565b8281036060840152610d438186610c8d565b9150508260808301529695505050505050565b600080600060608486031215610d6b57600080fd5b8335925060208401359150604084013567ffffffffffffffff811115610d9057600080fd5b610c6a86828701610b7a565b86815285602082015260018060a01b038516604082015283606082015260c060808201526000610dcf60c0830185610c8d565b905082151560a0830152979650505050505050565b60008060408385031215610df757600080fd5b82359150602083013567ffffffffffffffff811115610e1557600080fd5b610e2185828601610b7a565b9150509250929050565b60208082526017908201527f446f63756d656e7420646f6573206e6f74206578697374000000000000000000604082015260600190565b600181811c90821680610e7657607f821691505b602082108103610e9657634e487b7160e01b600052602260045260246000fd5b50919050565b601f821115610ee657600081815260208120601f850160051c81016020861015610ec35750805b601f850160051c820191505b81811015610ee257828155600101610ecf565b5050505b505050565b815167ffffffffffffffff811115610f0557610f05610b64565b610f1981610f138454610e62565b84610e9c565b602080601f831160018114610f4e5760008415610f365750858301515b600019600386901b1c1916600185901b178555610ee2565b600085815260208120601f198616915b82811015610f7d57888601518255948401946001909101908401610f5e565b5085821015610f9b5787850151600019600388901b60f8161c191681555b5050505050600190811b01905550565b600060018201610fcb57634e487b7160e01b600052601160045260246000fd5b5060010190565b606081526000610fe56060830186610c8d565b8281036020840152610ff78186610c8d565b915050826040830152949350505050565b634e487b7160e01b600052603260045260246000fd5b6020815260006110316020830184610c8d565b939250505056fea2646970667358221220c28e02d67b6597af1db3e97c3cef27a2284af46e3ce432bbe542e2114a087b6e64736f6c63430008130033",
  "linkReferences": {},
  "deployedLinkReferences": {}
}